{
  "contractName": "TicTacToe",
  "abi": [
    {
      "inputs": [],
      "payable": false,
      "stateMutability": "nonpayable",
      "type": "constructor"
    },
    {
      "constant": true,
      "inputs": [],
      "name": "player1",
      "outputs": [
        {
          "internalType": "address payable",
          "name": "",
          "type": "address"
        }
      ],
      "payable": false,
      "stateMutability": "view",
      "type": "function"
    },
    {
      "constant": true,
      "inputs": [],
      "name": "player2",
      "outputs": [
        {
          "internalType": "address payable",
          "name": "",
          "type": "address"
        }
      ],
      "payable": false,
      "stateMutability": "view",
      "type": "function"
    },
    {
      "constant": true,
      "inputs": [],
      "name": "winner",
      "outputs": [
        {
          "internalType": "address",
          "name": "",
          "type": "address"
        }
      ],
      "payable": false,
      "stateMutability": "view",
      "type": "function"
    },
    {
      "constant": false,
      "inputs": [],
      "name": "initializeBox",
      "outputs": [],
      "payable": false,
      "stateMutability": "nonpayable",
      "type": "function"
    },
    {
      "constant": false,
      "inputs": [
        {
          "internalType": "address payable",
          "name": "_player1",
          "type": "address"
        },
        {
          "internalType": "address payable",
          "name": "_player2",
          "type": "address"
        }
      ],
      "name": "setPlayers",
      "outputs": [],
      "payable": false,
      "stateMutability": "nonpayable",
      "type": "function"
    },
    {
      "constant": false,
      "inputs": [
        {
          "internalType": "uint256",
          "name": "rowVal",
          "type": "uint256"
        },
        {
          "internalType": "uint256",
          "name": "colVal",
          "type": "uint256"
        },
        {
          "internalType": "uint256",
          "name": "move",
          "type": "uint256"
        }
      ],
      "name": "saveCurrentMove",
      "outputs": [],
      "payable": false,
      "stateMutability": "nonpayable",
      "type": "function"
    },
    {
      "constant": false,
      "inputs": [
        {
          "internalType": "string",
          "name": "result",
          "type": "string"
        }
      ],
      "name": "saveResult",
      "outputs": [],
      "payable": false,
      "stateMutability": "nonpayable",
      "type": "function"
    },
    {
      "constant": false,
      "inputs": [],
      "name": "placeBets",
      "outputs": [],
      "payable": true,
      "stateMutability": "payable",
      "type": "function"
    },
    {
      "constant": false,
      "inputs": [
        {
          "internalType": "address payable",
          "name": "_to",
          "type": "address"
        }
      ],
      "name": "sendAmountViaCall",
      "outputs": [],
      "payable": false,
      "stateMutability": "nonpayable",
      "type": "function"
    },
    {
      "constant": true,
      "inputs": [],
      "name": "getCurrentBox",
      "outputs": [
        {
          "internalType": "uint256[3][3]",
          "name": "",
          "type": "uint256[3][3]"
        }
      ],
      "payable": false,
      "stateMutability": "view",
      "type": "function"
    },
    {
      "constant": true,
      "inputs": [],
      "name": "getGameResult",
      "outputs": [
        {
          "internalType": "string",
          "name": "",
          "type": "string"
        }
      ],
      "payable": false,
      "stateMutability": "view",
      "type": "function"
    }
  ],
  "bytecode": "0x60806040523480156200001157600080fd5b50620000226200002860201b60201c565b620002ae565b60405180606001604052806040518060600160405280600060ff168152602001600060ff168152602001600060ff1681525081526020016040518060600160405280600060ff168152602001600060ff168152602001600060ff1681525081526020016040518060600160405280600060ff168152602001600060ff168152602001600060ff168152508152506000906003620000c792919062000118565b506040518060400160405280600381526020017f544244000000000000000000000000000000000000000000000000000000000081525060099080519060200190620001159291906200016f565b50565b826003800281019282156200015c579160200282015b828111156200015b578251829060036200014a929190620001f6565b50916020019190600301906200012e565b5b5090506200016b919062000240565b5090565b828054600181600116156101000203166002900490600052602060002090601f016020900481019282601f10620001b257805160ff1916838001178555620001e3565b82800160010185558215620001e3579182015b82811115620001e2578251825591602001919060010190620001c5565b5b509050620001f2919062000271565b5090565b82600381019282156200022d579160200282015b828111156200022c578251829060ff169055916020019190600101906200020a565b5b5090506200023c919062000271565b5090565b6200026e91905b808211156200026a576000818162000260919062000299565b5060030162000247565b5090565b90565b6200029691905b808211156200029257600081600090555060010162000278565b5090565b90565b50600081556001016000815560010160009055565b610ae580620002be6000396000f3fe60806040526004361061009c5760003560e01c8063aacd0a9e11610064578063aacd0a9e1461028f578063adf3ef9f146102e0578063b3fb14ad14610351578063d30895e4146103e1578063dfbf53ae14610438578063f74508711461048f5761009c565b806304cc30dd146100a15780631148c1bc146100ab5780632564a1731461012157806359a5f12d14610170578063877db67d146101c7575b600080fd5b6100a96104a6565b005b3480156100b757600080fd5b506100c06104ec565b604051808260036000925b818410156101115782846020020151600360200280838360005b838110156101005780820151818401526020810190506100e5565b5050505090500192600101926100cb565b9250505091505060405180910390f35b34801561012d57600080fd5b5061016e6004803603606081101561014457600080fd5b8101908080359060200190929190803590602001909291908035906020019092919050505061056f565b005b34801561017c57600080fd5b50610185610596565b604051808273ffffffffffffffffffffffffffffffffffffffff1673ffffffffffffffffffffffffffffffffffffffff16815260200191505060405180910390f35b3480156101d357600080fd5b5061028d600480360360208110156101ea57600080fd5b810190808035906020019064010000000081111561020757600080fd5b82018360208201111561021957600080fd5b8035906020019184600183028401116401000000008311171561023b57600080fd5b91908080601f016020809104026020016040519081016040528093929190818152602001838380828437600081840152601f19601f8201169050808301925050505050505091929192905050506105bc565b005b34801561029b57600080fd5b506102de600480360360208110156102b257600080fd5b81019080803573ffffffffffffffffffffffffffffffffffffffff1690602001909291905050506105d6565b005b3480156102ec57600080fd5b5061034f6004803603604081101561030357600080fd5b81019080803573ffffffffffffffffffffffffffffffffffffffff169060200190929190803573ffffffffffffffffffffffffffffffffffffffff169060200190929190505050610686565b005b34801561035d57600080fd5b5061036661070c565b6040518080602001828103825283818151815260200191508051906020019080838360005b838110156103a657808201518184015260208101905061038b565b50505050905090810190601f1680156103d35780820380516001836020036101000a031916815260200191505b509250505060405180910390f35b3480156103ed57600080fd5b506103f66107ae565b604051808273ffffffffffffffffffffffffffffffffffffffff1673ffffffffffffffffffffffffffffffffffffffff16815260200191505060405180910390f35b34801561044457600080fd5b5061044d6107d4565b604051808273ffffffffffffffffffffffffffffffffffffffff1673ffffffffffffffffffffffffffffffffffffffff16815260200191505060405180910390f35b34801561049b57600080fd5b506104a46107fa565b005b34600d60003373ffffffffffffffffffffffffffffffffffffffff1673ffffffffffffffffffffffffffffffffffffffff16815260200190815260200160002081905550565b6104f46108e6565b6000600380602002604051908101604052809291906000905b8282101561056657838260030201600380602002604051908101604052809291908260038015610552576020028201915b81548152602001906001019080831161053e575b50505050508152602001906001019061050d565b50505050905090565b806000846003811061057d57fe5b60030201836003811061058c57fe5b0181905550505050565b600b60009054906101000a900473ffffffffffffffffffffffffffffffffffffffff1681565b80600990805190602001906105d2929190610913565b5050565b60008173ffffffffffffffffffffffffffffffffffffffff166108fc479081150290604051600060405180830381858888f19350505050905080610682576040517f08c379a00000000000000000000000000000000000000000000000000000000081526004018080602001828103825260148152602001807f4661696c656420746f2073656e6420457468657200000000000000000000000081525060200191505060405180910390fd5b5050565b81600a60006101000a81548173ffffffffffffffffffffffffffffffffffffffff021916908373ffffffffffffffffffffffffffffffffffffffff16021790555080600b60006101000a81548173ffffffffffffffffffffffffffffffffffffffff021916908373ffffffffffffffffffffffffffffffffffffffff1602179055505050565b606060098054600181600116156101000203166002900480601f0160208091040260200160405190810160405280929190818152602001828054600181600116156101000203166002900480156107a45780601f10610779576101008083540402835291602001916107a4565b820191906000526020600020905b81548152906001019060200180831161078757829003601f168201915b5050505050905090565b600a60009054906101000a900473ffffffffffffffffffffffffffffffffffffffff1681565b600c60009054906101000a900473ffffffffffffffffffffffffffffffffffffffff1681565b60405180606001604052806040518060600160405280600060ff168152602001600060ff168152602001600060ff1681525081526020016040518060600160405280600060ff168152602001600060ff168152602001600060ff1681525081526020016040518060600160405280600060ff168152602001600060ff168152602001600060ff168152508152506000906003610897929190610993565b506040518060400160405280600381526020017f5442440000000000000000000000000000000000000000000000000000000000815250600990805190602001906108e3929190610913565b50565b60405180606001604052806003905b6108fd6109e3565b8152602001906001900390816108f55790505090565b828054600181600116156101000203166002900490600052602060002090601f016020900481019282601f1061095457805160ff1916838001178555610982565b82800160010185558215610982579182015b82811115610981578251825591602001919060010190610966565b5b50905061098f9190610a05565b5090565b826003800281019282156109d2579160200282015b828111156109d1578251829060036109c1929190610a2a565b50916020019190600301906109a8565b5b5090506109df9190610a6f565b5090565b6040518060600160405280600390602082028038833980820191505090505090565b610a2791905b80821115610a23576000816000905550600101610a0b565b5090565b90565b8260038101928215610a5e579160200282015b82811115610a5d578251829060ff16905591602001919060010190610a3d565b5b509050610a6b9190610a05565b5090565b610a9891905b80821115610a945760008181610a8b9190610a9b565b50600301610a75565b5090565b90565b5060008155600101600081556001016000905556fea265627a7a723158205e08fb180d886fc18b6392f70564689498ecec124c19523a68ffc1ecea82256164736f6c63430005100032",
  "source": "pragma solidity >=0.4.21 <0.7.0;\n\ncontract TicTacToe {\n\n    // initialize the box as 3 x 3 Array of unsigned integers\n    uint [3][3] box;\n    string gameResult;\n    address payable public player1;\n    address payable public player2;\n    address public winner;\n    mapping(address => uint256) bets;\n\n    // initialize the box when the contract is deployed\n    constructor() public {\n        initializeBox();\n    }\n\n    // initialize the box the O values for each cell\n    function initializeBox() public {\n        box = [[0, 0, 0], [0, 0, 0], [0, 0, 0]];\n        gameResult = 'TBD';\n    }\n\n    // set players\n    function setPlayers(address payable _player1, address payable _player2) public {\n        player1 = _player1;\n        player2 = _player2;\n    }\n\n    // save current move by user / computer\n    function saveCurrentMove(uint rowVal, uint colVal, uint move) public {\n        box[rowVal][colVal] = move;\n    }\n\n    // save the result of the game\n    function saveResult(string memory result) public {\n        gameResult = result;\n    }\n\n    // get bet amount from players\n    function placeBets() public payable {\n        bets[msg.sender] = msg.value;\n    }\n\n    function sendAmountViaCall(address payable _to) public {\n        bool sent = _to.send(address(this).balance);\n        require(sent, \"Failed to send Ether\");\n    }\n\n    // get the current box\n    function getCurrentBox() public view returns (uint [3][3] memory) {\n        return box;\n    }\n\n    // get the game RESULT\n    function getGameResult() public view returns (string memory) {\n        return gameResult;\n    }\n\n\n}",
  "sourcePath": "/Users/shivam/Desktop/p_code/ethereum-react-simple-tic-tac-toe-dapp/contracts/TicTacToe.sol",
  "compiler": {
    "name": "solc",
    "version": "0.5.16+commit.9c3226ce.Emscripten.clang"
  },
  "schemaVersion": "3.4.3",
  "updatedAt": "2021-12-16T10:18:49.575Z",
  "networkType": "ethereum",
  "devdoc": {
    "methods": {}
  },
  "userdoc": {
    "methods": {}
  }
}